:100000000C94A3000C94CB000C94CB000C941E0910
:100010000C94F9080C94D4080C94CB000C94CB00ED
:100020000C94CB000C94CB000C94CB000C94CB0024
:100030000C94CB000C9443090C94CB000C94CB0093
:100040000C946B070C94CB000C94CB000C94CB005D
:100050000C94CB000C94CB000C94CB000C94CB00F4
:100060000C94B5070C94CB0007634236B79BD8A716
:100070001A39685618AEBAAB558C1D3CB7CC5763CD
:10008000BD6DEDFD753EF6177231BF000000803F7B
:1000900008000000BE922449123EABAAAA2ABECD97
:1000A000CCCC4C3E00000080BEABAAAAAA3E000009
:1000B0000000BF000000803F000000000008417801
:1000C000D3BB4387D1133D190E3CC3BD4282AD2B38
:1000D0003E68EC8276BED98FE1A93E4C80EFFFBE30
:1000E00001C4FF7F3F00000000000000000023006B
:1000F0002600290000000008000201000003040798
:1001000000000000000000000000000025002800A2
:100110002B0000000000240027002A00040404042F
:1001200004040404020202020202030303030303A1
:10013000010204081020408001020408102001027E
:1001400004081020E30911241FBECFEFD8E0DEBF62
:10015000CDBF12E0A0E0B1E0E0EEF9E402C005900E
:100160000D92A63AB107D9F724E0A6EAB2E001C0A1
:100170001D92AC3DB207E1F710E0C3EAD0E004C045
:100180002197FE010E94CD24C23AD107C9F70E94EF
:100190009F0A0C94EE240C94000090E0FC01E05DBA
:1001A000FE4F2491845E9E4FFC018491882399F038
:1001B00090E0880F991FFC01EE5EFE4FA591B4916F
:1001C000FC01E85FFE4F859194918FB7F894EC9114
:1001D000E22BEC938FBF08958091E5039091E603A5
:1001E000891B990B08950895089590E0FC01EC5047
:1001F000FF4F2491FC01E05DFE4F3491FC01E45E71
:10020000FE4FE491EE23C9F0222339F0233001F1AF
:10021000A8F4213019F1223029F1F0E0EE0FFF1F90
:10022000E85FFE4FA591B4918FB7F894EC916111FE
:1002300026C030953E233C938FBF08952730A9F008
:100240002830C9F0243049F7809180008F7D03C0A9
:10025000809180008F7780938000DFCF84B58F7787
:1002600084BDDBCF84B58F7DFBCF8091B0008F77CD
:100270008093B000D2CF8091B0008F7DF9CF3E2B1C
:10028000DACF3FB7F8948091230390912403A09193
:100290002503B091260326B5A89B05C02F3F19F072
:1002A0000196A11DB11D3FBFBA2FA92F982F8827F6
:1002B000BC01CD01620F711D811D911D42E0660FD1
:1002C000771F881F991F4A95D1F708958F929F92A3
:1002D000AF92BF92CF92DF92EF92FF926B017C01BF
:1002E0000E9441014B015C01C114D104E104F104FD
:1002F000B9F00E944101681979098A099B09683E91
:1003000073408105910580F321E0C21AD108E1080C
:10031000F10888EE880E83E0981EA11CB11CE4CF82
:10032000FF90EF90DF90CF90BF90AF909F908F9015
:1003300008958091070490910804893C910534F058
:10034000885C9109909308048093070468EC70E03E
:1003500080E090E00C9466012091FB02260F332789
:10036000331F21323105ECF420912F04FC0190E081
:1003700080E0243069F082E00895A091FB02219191
:10038000AC0145525D4FA40FB52FB11D2C930196C2
:10039000861798F38091FB02680F6093FB0280E060
:1003A000089581E0089510922F0481E080932E0437
:1003B0001092090461E082E10E94F50061E083E1AE
:1003C0000E94F500E9EBF0E080818E7F80838081E0
:1003D0008D7F808388E48093B80085E48093BC009F
:1003E0000895CF93DF9391E09093DA028823B9F0D8
:1003F000C091B800D091BA008091BC008A7B8093F4
:10040000BC0060E082E10E94F50060E083E10E94B0
:10041000F5000E94D301D093BA00C093B800DF91D9
:10042000CF9108950895E091E6038091E503E817E0
:1004300030F4F0E0E951FC4F808190E008958FEFB7
:100440009FEF08959091E6038091E5032FEF3FEF32
:10045000981748F4E92FF0E0E951FC4F208130E093
:100460009F5F9093E603C9010895CF92DF92EF92C8
:10047000FF920F931F93CF93DF937C01CB018A01EF
:1004800020915804222389F0EB016B01C40ED51E84
:10049000CC15DD0569F06991D701ED91FC910190D2
:1004A000F081E02DC7010995F3CF642F0E94AC01C4
:1004B000C801DF91CF911F910F91FF90EF90DF90D6
:1004C000CF900895CF93DF931F92CDB7DEB76983A6
:1004D000209158042223F9F020915504203258F03D
:1004E00021E030E0FC013383228390E080E00F9034
:1004F000DF91CF91089580915604E82FF0E0EB5CF6
:10050000FB4F998190838F5F8093560480935504AD
:1005100081E090E0ECCF61E0CE0101960E94AC0159
:10052000F7CFCF92DF92EF92FF920F931F93CF936B
:10053000DF939091BE046091BF048091BD04C0918F
:10054000C00421E020935804C0935704109256042D
:100550001092550460956923682B89E594E00E9408
:100560006202D0915504D13208F092C00E9441013C
:100570006B017C0180912F04811165C082E0809322
:100580002F0481E080932E048FEF80932D0410922E
:100590002C04D0932B04E5E3F4E0ABE0B4E080E07E
:1005A000D81385C010920A0480910A04CC0FC82B7E
:1005B000C0930A0480910904813009F07CC0109234
:1005C00009040E9441016B017C0180910A0480931F
:1005D000BB008091310490913204A0913304B0911A
:1005E0003404892B8A2B8B2B99F00E9441010091B6
:1005F00031041091320420913304309134046C1989
:100600007D098E099F090617170728073907E0F1AA
:100610008091BC0083FDD9CF85EC8093BC000E9403
:1006200041016B017C0180912F04823009F445C0A7
:1006300080912D048F3F61F180912D04803241F132
:1006400080912D0425C08091310490913204A091B5
:100650003304B0913404892B8A2B8B2B09F48ACF75
:100660000E94410100913104109132042091330421
:10067000309134046C197D098E099F0906171707FC
:100680002807390708F076CF809130040E94F101E5
:10069000109256041092550410925804DF91CF9195
:1006A0001F910F91FF90EF90DF90CF90089591915F
:1006B0009D938F5F75CF85EEB0CF8091310490917F
:1006C0003204A0913304B0913404892B8A2B8B2BF4
:1006D00009F4A9CF0E944101009131041091320424
:1006E00020913304309134046C197D098E099F09DF
:1006F000061717072807390708F095CFC5CF90E0F0
:1007000080E0089590E0FC01EE0FFF1FE251FF4FE3
:10071000A591B4912C91FC01E952FD4F30812083C9
:10072000880F991FFC01EC59FE4F0190F081E02DDC
:100730008081089561E080E00E94F50061E081E041
:100740000E94F50061E082E00E94F50061E083E034
:100750000C94F5008A3008F0B2C0E82FF0E0ED54B8
:10076000FC4F0C94CD24BD03D903EF0309041B04F3
:100770002D043B0451045304590460E084E00E94BA
:10078000F50060E085E00E94F50060E086E00E94F0
:10079000F50060E087E00E94F50060E088E00E94DC
:1007A000F50060E089E00E94F50061E08AE00C94C9
:1007B000F50061E084E00E94F50060E085E00E94C1
:1007C000F50060E086E00E94F50061E087E00E94AD
:1007D000F50061E088E00E94F50061E0E3CF60E0B1
:1007E00084E00E94F50060E085E00E94F50061E091
:1007F00086E00E94F50060E087E00E94F50060E07E
:1008000088E00E94F50061E089E00E94F50060E068
:10081000CDCF60E084E00E94F50060E085E00E94BA
:10082000F50060E086E00E94F50060E087E00E944D
:10083000F50061E0E5CF61E084E00E94F50060E052
:1008400085E00E94F50060E086E00E94F50061E02E
:1008500087E00E94F50061E01FC060E084E00E9434
:10086000F50061E085E00E94F50060E086E00E940E
:10087000F50060E0EDCF60E084E00E94F50061E00B
:1008800085E00E94F50060E086E00E94F50060E0EF
:1008900087E00E94F50060E088E00E94F50060E0DB
:1008A000B3CF60E087CF60E084E00E94F50060E0B5
:1008B000E7CF60E084E00E94F50060E0D3CF0895C8
:1008C0002F923F924F925F926F927F928F929F9260
:1008D000AF92BF92CF92DF92EF92FF920F931F934E
:1008E000CF93DF93CDB7DEB7E2970FB6F894DEBFB4
:1008F0000FBECDBF8AAB8FE0E7E0F1E0DE015F968F
:1009000001900D928A95E1F78EE1E6E1F1E0DE01DA
:10091000119601900D928A95E1F728EE33E0DB0104
:100920000E94D3242B013C011E012FE1220E311C19
:1009300010E000E0D1018D911D01BAA98B134BC0CD
:10094000F801EE0FFF1F21E030E02C0F3D1FE20FFA
:10095000F31FE080F1806701CC0CDD1CCC0CDD1CAA
:1009600035E0C31AD108C701880F991F9C01990F60
:10097000440B550B2EA73FA748AB59AB812C912CAC
:10098000540184149504A604B7042CF58091BD0489
:1009900080628093BD040E94910232E0E316F1046C
:1009A00018F0C6010197F1F78091BD048F7D809307
:1009B000BD040E94910242E0E416F10418F0C60161
:1009C0000197F1F78EA59FA5A8A9B9A9880E991E30
:1009D000AA1EBB1ED6CF0F5F1F4F0E30110509F0A8
:1009E000A9CFE2960FB6F894DEBF0FBECDBFDF9160
:1009F000CF911F910F91FF90EF90DF90CF90BF901C
:100A0000AF909F908F907F906F905F904F903F90AE
:100A10002F900895CF92DF92EF92FF920F931F9342
:100A2000CF93DF9300D0CDB7DEB769834A83880FB9
:100A3000991F0091BB041091BC04000F111FE5E643
:100A4000F4E09F01255634402017310714F4119229
:100A5000F8CF2981FC01EB59FB4F21838A818083E8
:100A600060E08091B9040E94F5001016110604F5AB
:100A700001501109F801EB59FB4FE080D090B70409
:100A8000C090B50488E0F82E6E2D661F6627661F9D
:100A90008C2D0E94F500EE0C61E08D2D0E94F5007A
:100AA00060E08D2D0E94F500FA94F110EDCFDDCFBE
:100AB00061E08091B9040F900F90DF91CF911F9169
:100AC0000F91FF90EF90DF90CF900C94F500EF9294
:100AD000FF921F93CF93DF932091BB043091BC040E
:100AE00082179307B4F4EC0123E0880F991F2A952D
:100AF000E1F79C012B583B4F790111E0F70111926E
:100B00007F0140E0612FCE010E940A051F5F19306E
:100B1000A9F7DF91CF911F91FF90EF9008958F92E9
:100B20009F92AF92BF92CF92DF92EF92FF920F937C
:100B30001F93CF93DF932091BB043091BC048217A5
:100B400093070CF03FC068307105E0F58C016C0133
:100B500083E0CC0CDD1C8A95E1F780E890E002C0D0
:100B6000959587956A95E2F7882E982E9094D0E017
:100B7000C0E0E42EF12C97E0A92EB12C8091BB04AB
:100B80009091BC0408171907CCF4F601EC0FFD1F77
:100B9000EB59FB4F808995012C1B3D0BA70102C02F
:100BA000559547952A95E2F740FF19C08829808B13
:100BB00040896C2F6F5FC8010E940A052196C830DA
:100BC000D105E1F6DF91CF911F910F91FF90EF904A
:100BD000DF90CF90BF90AF909F908F900895892124
:100BE000E6CFEF92FF920F931F93CF93DF93EC0129
:100BF0007C01EE0CFF1CEE0CFF1CF701EF57FC4FC5
:100C00004081518162817381BB2777FDBA95A72FFF
:100C1000962F852F8E01000F111FF801EF52FC4F08
:100C200091838083F801EF53FC4F518340832091DF
:100C3000BB043091BC041216130694F4C830D105DD
:100C400078F4F701EF5BFC4F4181482BFE01EB5933
:100C5000FB4F408B6C2F6F5F90E080E00E940A0595
:100C60008091BB049091BC040297E4F0C830D10598
:100C7000C8F4D701AF5BBC4FF801EF53FC4F4C9168
:100C80008081482BFE01EB59FB4F408F6C2F6F5F2B
:100C900081E090E0DF91CF911F910F91FF90EF9055
:100CA0000C940A05DF91CF911F910F91FF90EF9067
:100CB0000895CF92DF92EF92FF920F931F93CF93FD
:100CC0008091BE048093C104C091C0040E94410180
:100CD0006B017C0180912F04811164C081E08093BD
:100CE0002F0480932E049FEF90932D0410922C04D8
:100CF00010922B0480930A0480910A04CC0FC82B15
:100D0000C0930A0480910904813009F078C01092E0
:100D100009040E9441016B017C0180910A048093C7
:100D2000BB008091310490913204A0913304B091C2
:100D30003404892B8A2B8B2BA1F00E944101009156
:100D400031041091320420913304309134046C1931
:100D50007D098E099F09061717072807390708F428
:100D600042C08091BC0083FDD8CF85EC8093BC004D
:100D70000E9441016B017C0180912F04813009F4B4
:100D800040C080912C0481115EC080912C04ABE0A6
:100D9000B4E0E7EEF3E090E0981751F12D91219344
:100DA0009F5FFACF8091310490913204A091330477
:100DB000B0913404892B8A2B8B2B09F48BCF0E94A2
:100DC000410100913104109132042091330430919B
:100DD00034046C197D098E099F0906171707280727
:100DE000390708F077CF809130040E94F10180E04C
:100DF0001092E6038093E503811127C0FFCF85EEB3
:100E0000B5CF8091310490913204A0913304B09118
:100E10003404892B8A2B8B2B09F4AECF0E9441011D
:100E20000091310410913204209133043091340444
:100E30006C197D098E099F090617170728073907BE
:100E400008F09ACFD0CF81E0A2CF89E594E00E944C
:100E500022028093BE04CF911F910F91FF90EF90DB
:100E6000DF90CF90089585ED8093BC008091310490
:100E700090913204A0913304B09134040796A11DDF
:100E8000B11D23E0B695A795979587952A95D1F73B
:100E90002091BC0024FD03C010922F0408954091BE
:100EA0003104509132046091330470913404452B25
:100EB000462B472B69F30097A105B10541F025E3C7
:100EC0002A95F1F700000197A109B109E1CF8091BE
:100ED00030040C94F1011F920F920FB60F9211245F
:100EE0002F933F938F939F93AF93BF9380911F0353
:100EF00090912003A0912103B091220330911E0311
:100F000023E0230F2D3758F50196A11DB11D209325
:100F10001E0380931F0390932003A0932103B0939B
:100F200022038091230390912403A0912503B09183
:100F300026030196A11DB11D8093230390932403E2
:100F4000A0932503B0932603BF91AF919F918F91FA
:100F50003F912F910F900FBE0F901F90189526E88C
:100F6000230F0296A11DB11DD2CF1F920F920FB673
:100F70000F9211242F933F934F935F936F937F931F
:100F80008F939F93AF93BF93EF93FF938091B9009B
:100F9000887F803609F44AC0F0F5883209F4A7C08A
:100FA00018F5803109F49BC0B8F4882309F4F9C01E
:100FB000883009F494C0FF91EF91BF91AF919F9158
:100FC0008F917F916F915F914F913F912F910F90F2
:100FD0000FBE0F901F901895883109F488C0803299
:100FE00051F780932D0414C0803409F49DC040F45F
:100FF0008033B9F38833F9F680932D0485ECB0C0C3
:10100000803509F485C0883509F496C0883499F68E
:101010000E943307D0CF883909F48CC038F588375F
:1010200029F050F4883611F0803729F683E0809358
:101030002F0410921D0357C0883809F47BC08039F3
:1010400019F0803809F0B7CF80911D03803208F085
:1010500071C0E0911D0381E08E0F80931D0380918C
:10106000BB00F0E0E350FD4F80833DC0803B39F092
:10107000E0F4803A09F479C0883A09F09CCF84E022
:1010800080932F041092FC021092FB02E09129033E
:10109000F0912A0309958091FB0281110FC081E034
:1010A0008093FB021092DB0209C0803C09F4A6CFBA
:1010B000883C09F4A3CF883B09F07DCFE091FC0286
:1010C00081E08E0F8093FC02F0E0E552FD4F8081BD
:1010D0008093BB009091FC028091FB0229C080911B
:1010E0000A048093BB0085EC8093BC0064CF909190
:1010F0002C0480912B04981758F5E0912C0481E082
:101100008E0F80932C04F0E0E55FFB4F8081E9CFE8
:10111000E0912C0481E08E0F80932C048091BB0021
:10112000F0E0E55FFB4F808390912C0480912B04CD
:101130009817C8F285E8D8CFE0912C0481E08E0F93
:1011400080932C048091BB00F0E0E55FFB4F80832F
:1011500080912E0481115CCF81E08093090484EAA0
:101160008093BC0010922F0426CF85EC8093BC00A6
:1011700010922F0480911D03803230F4E0911D0302
:10118000F0E0E350FD4F108260911D0370E0E091AC
:101190002703F09128038DEF92E0099510921D032B
:1011A0000ACF10922D0434CF1F920F920FB60F92D8
:1011B00011242F933F934F935F936F937F938F935C
:1011C0009F93AF93BF93EF93FF9382E00E948203BC
:1011D000FF91EF91BF91AF919F918F917F916F910F
:1011E0005F914F913F912F910F900FBE0F901F90E5
:1011F00018951F920F920FB60F9211242F933F93C1
:101200004F935F936F937F938F939F93AF93BF930E
:10121000EF93FF9381E00E948203FF91EF91BF91D2
:10122000AF919F918F917F916F915F914F913F917E
:101230002F910F900FBE0F901F9018951F920F9235
:101240000FB60F9211242F933F934F935F936F9399
:101250007F938F939F93AF93BF93EF93FF9380E020
:101260000E948203FF91EF91BF91AF919F918F9167
:101270007F916F915F914F913F912F910F900FBE92
:101280000F901F9018951F920F920FB60F92112476
:101290002F933F934F935F936F937F938F939F937E
:1012A000AF93BF93CF93EF93FF930E949A03C091A4
:1012B000A602C23009F449C0C0F4C13059F1C3706C
:1012C000CF5FC093A602FF91EF91CF91BF91AF91F5
:1012D0009F918F917F916F915F914F913F912F914E
:1012E0000F900FBE0F901F901895C33009F44CC09B
:1012F000C43029F78091E1039091E2036AE070E045
:101300000E94B92490912D03890F0E94AA0360E0E6
:1013100083E018C020912D0330912E038091E103CA
:101320009091E203A901480F591F493E53403CF2F6
:1013300068EE73E00E94B924862F820F0E94AA03F0
:1013400060E080E00E94F500BACF20912D0330913B
:101350002E038091E1039091E203A901480F591FE8
:10136000453651050CF4ABCF64E670E00E94B92419
:10137000CB01820F931F6AE070E00E94B9240E94A3
:10138000AA0360E081E0DECFE0912D03F0912E030F
:101390008091E1039091E2039F01280F391F2B30C8
:1013A00031050CF48CCF2AE030E0B9010E94B92459
:1013B000CB018E0F9F1FB9010E94B9240E94AA037E
:1013C00060E082E0BFCFCF93DF9310925C04109275
:1013D0005B0488EE93E0A0E0B0E080935D0490931E
:1013E0005E04A0935F04B093600488E992E0909358
:1013F0005A04809359041092BD041092BE041092B6
:10140000BF041092C0041092C1041092C204109242
:10141000C3041092C4041092C5041092C604109222
:10142000C7041092C8041092C9041092CA04109202
:10143000CB041092CD041092CC041092CF041092E1
:10144000CE041092D1041092D0041092D3041092C2
:10145000D2041092D5041092D4041092D7041092A2
:10146000D6041092D9041092D8041092DB04109282
:10147000DA04CDE0D0E0D093B604C093B5048CE09C
:1014800090E09093B8048093B7048BE090E0909341
:10149000BA048093B90482E090E09093BC048093F6
:1014A000BB048DE00E94CD008091B7040E94CD0066
:1014B0008091B9040E94CD0061E08091B9040E943E
:1014C000F500D093B604C093B504E5E7F4E01192BB
:1014D00084E0E53BF807D9F7D0E0C0E08091BB0499
:1014E0009091BC04C817D9073CF540E06FE0CE01ED
:1014F0000E940A058091BB049091BC04C817D907CB
:101500002CF447E06BE0CE010E940A0540E069E060
:10151000CE010E940A05CE010E9467058091BB049E
:101520009091BC04C817D9072CF440E06CE0CE01C0
:101530000E940A052196D2CFDF91CF910895CF93D3
:10154000DF93CDB7DEB7E4970FB6F894DEBF0FBEDA
:10155000CDBF789484B5826084BD84B5816084BD3C
:1015600085B5826085BD85B5816085BD80916E0041
:10157000816080936E001092810080918100826072
:1015800080938100809181008160809381008091AF
:1015900080008160809380008091B100846080939E
:1015A000B1008091B00081608093B00080917A009A
:1015B000846080937A0080917A00826080937A00C0
:1015C00080917A00816080937A0080917A008068AF
:1015D00080937A001092C10080E28093C004109240
:1015E000E6031092E50310925604109255040E94EF
:1015F000D30183EF90E090932A038093290384EF33
:1016000090E090932803809327030E94590684E07A
:101610000E94CD0085E00E94CD0086E00E94CD00B2
:1016200087E00E94CD0088E00E94CD0089E00E9402
:10163000CD008AE00E94CD0080E00E94CD0081E0D4
:101640000E94CD0082E00E94CD0083E00E94CD0088
:101650000E949A031092800081E080938100109292
:1016600085001092840080936F008091BF04806297
:101670008093BF048091BD048F7D8093BD040E9440
:1016800091028091BF04877F8093BF048091BD0445
:1016900088608093BD040E9491028091BF048D7F79
:1016A0008093BF048091BD0482608093BD040E943A
:1016B00091028091BF048E7F8093BF048091BD040E
:1016C00081608093BD040E9491028091BF048B7F52
:1016D0008093BF048091BD0484608093BD040E9408
:1016E00091028091BF048F7E8093BF048091BD04DE
:1016F00080618093BD040E9491028091BF048F7E1F
:101700008093BF048091BD0480618093BD040E94DA
:1017100091028091BB049091BC041816190634F410
:1017200041E06CE090E080E00E940A058091BB04FB
:101730009091BC04029734F041E06CE081E090E0CD
:101740000E940A058091BB049091BC0418161906EA
:1017500034F445E06AE090E080E00E940A05809160
:10176000BB049091BC04029734F045E06AE081E04C
:1017700090E00E940A0590E080E00E94670581E009
:1017800090E00E94670580E480937C0080917A005D
:10179000806480937A0080917A0086FDFCCF8091EE
:1017A000780060917900762F682F072E000C880B47
:1017B000990B611571058105910511F00E948F202B
:1017C0000091E3031091E4030115110509F09FC096
:1017D00080E1E4E3F1E0DE01519601900D928A95FB
:1017E000E1F780E1E4E4F1E0DE01119601900D9271
:1017F0008A95E1F76E0121E1C20ED11CAE014F5F67
:101800005F4F7A01D6014C91B2E0CB0ED11CB801EA
:1018100090E080E00E948F05F7014081F2E0EF0E3A
:10182000F11CB80181E090E00E948F050F5F1F4F0F
:101830000830110539F70AE611E090E3E92E92E04D
:10184000F92E23E9C22E22E0D22EBB24B3940E94AB
:1018500059068091BE0484FD0BC0809102018B2546
:10186000809302016CE271E080E090E00E946601EA
:101870000E9459068091BE0484FD12C081E090E070
:101880009093E4038093E3031092E2031092E10348
:1018900080E090E0892B09F493CF0E94000090CF64
:1018A000D7018D917D018032D9F4F8016081718179
:1018B0007695762F662777956795072E000C880B0F
:1018C000990B0E94660160E470E080E090E00E9465
:1018D00066010E5F1F4FCE14DF0409F0B8CFD8CFDA
:1018E00090910201992359F0D8016D917C917695E0
:1018F000762F6627779567950E946004E4CF8091E4
:10190000BD048F7D8093BD040E949102DCCF90E0E6
:1019100080E00E94670581E090E00E94670580E119
:10192000E1EDF3E0DF01882E1D928A94E9F7E1EC06
:10193000F3E0DF011D928A95E9F780E4E1E8F3E046
:10194000DF01882E1D928A94E9F7E1E4F3E0DF01DC
:101950001D928A95E9F72091E3033091E403213049
:10196000310511F00C94871F80913F039091400343
:10197000843691050CF059C010923E0310923D033D
:1019800020913D0330913E0385E090E0821B930B54
:1019900044E6489F9001499F300D11243093010186
:1019A00020930001309308042093070480913B03A7
:1019B00090913C03892B09F05BC00E94402027E0F6
:1019C00030E040E050E00E9498206F5F7F4F8F4FE3
:1019D0009F4F70933C0360933B030E94402027E09D
:1019E00030E040E050E00E9498206F5F7F4F8F4FC3
:1019F0009F4F70933A03609339031092380310920B
:101A00003703E0913B03F0913C033197E730F10558
:101A100008F05FC0E25FF24F0C94CD244A0DBE0D7A
:101A2000D70DF00D1A0E2F0E4C0E883C91052CF49C
:101A300030933E0320933D03A3CF8C32B1E09B074C
:101A40003CF482E090E090933E0380933D0398CF76
:101A50008039E1E09E071CF483E090E0F4CF843FFE
:101A600091401CF484E090E0EECF85E090E0EBCF75
:101A70008091390390913A0390933C0380933B0308
:101A80008091E1039091E20301969093E2038093A9
:101A9000E103A3CF812C912CA3E0AA2EB12C80923C
:101AA0008D0390928E03A0928F03B0929003809248
:101AB000910390929203A0929303B092940383E0D7
:101AC00090E0909336038093350390933403809392
:101AD0003303312C212C109232031092310384E015
:101AE00090E09AA389A30E9459068091BE0482FDCA
:101AF00042C10091350310913603101611060CF007
:101B00003AC1C0903303D090340368E0862E912C04
:101B10008C189D089CA68BA6D801AA0FBB1FAA0FE4
:101B2000BB1FCD018F579C4FB80150E040E030E023
:101B300020E0ABA4BCA46A157B050CF0D2C0FD016B
:101B4000E40FF51FE35CFC4F40805180628073809E
:101B5000FC01E40FF51F80809180A280B380842077
:101B60009520A620B72089288A288B2811F42F5F7A
:101B70003F4F6F5F7F4F4C5F5F4FDBCF20E030E028
:101B800047E050E020938D0330938E0340938F0302
:101B90005093900340E050E061E070E04093910387
:101BA00050939203609393037093940388CF60E003
:101BB00070E081E090E060938D0370938E038093DA
:101BC0008F039093900380E090E0A7E0B0E08093D3
:101BD000910390939203A0939303B09394036FCFD8
:101BE000812C912CF2E0AF2EB12C8092890390923F
:101BF0008A03A0928B03B0928C0320E030E043E094
:101C000050E020938D0330938E0340938F035093C5
:101C100090038092910390929203A0929303B092CA
:101C2000940382E090E0909336038093350383E041
:101C300090E04BCF40E050E06FE070E040938D03C8
:101C400050938E0360938F037093900383E090E032
:101C5000909336038093350384E090E036CF60E0C4
:101C600070E082E090E06093890370938A03809330
:101C70008B0390938C0380E090E0A3E0B0E080932E
:101C80008D0390938E03A0938F03B0939003812CC8
:101C9000912C5401A394BDCF20E030E041E050E00E
:101CA0002093890330938A0340938B0350938C03D2
:101CB00040E050E063E070E040938D0350938E036A
:101CC00060938F037093900360E070E082E090E097
:101CD0006093910370939203809393039093940382
:101CE000A0CF3093300320932F0348E050E0401BF7
:101CF000510B4C195D0942175307E9F501501109C1
:101D000058017C018BA49CA4A814B90414F5970174
:101D10002450310947E0A416B104A4F4F7018081EE
:101D20009181A281B381F90180839183A283B383DE
:101D3000C5010E94F105BFEFAB1ABB0AE4E0EE0E4D
:101D4000F11CE0CFD9011D921D921D921C92139798
:101D5000EFCF1093360300933503FFEFCF1ADF0A5E
:101D6000D0923403C09233036AE070E085E40E94AD
:101D700060040E94990129A13AA1215031093AA396
:101D800029A3232B09F0AFCE44E050E05AA349A386
:101D90000E9459068091BE0480FD8AC0E090330302
:101DA000F09034031E141F040CF082C00091350320
:101DB00010913603B801660F771F660F771F7EA359
:101DC0006DA3B801F0E0E0E030E020E088E090E0D2
:101DD0008E199F096817790714F56F5F7F4F4DA122
:101DE0005EA14E0F5F1FDA01AF57BC4F4F5B5C4FD8
:101DF0004D905D906D907C90DA0114968D909D9041
:101E0000AD90BC901797482059206A207B20452828
:101E10004628472811F42F5F3F4F3496DBCF30938D
:101E2000300320932F0348E050E0401B510B4E1924
:101E30005F0942175307E1F56C01FC01EE0FFF1F2C
:101E4000EE0FFF1FEF57FC4FC016D106ECF09F01BD
:101E50002450310949011C141D048CF4D9014D9101
:101E60005D916D917C914083518362837383C60140
:101E70000E94F105B1E0CB1AD108F401E5CF108240
:101E8000118212821382F3CF0F5F1F4F109336031C
:101E900000933503E1E0EE1AF108F0923403E0928A
:101EA00033036AE070E085E40E9460040E949901B7
:101EB00029A13AA1215031093AA329A3232B09F0E2
:101EC00067CF0E9459068091BE0481FDE0C1109247
:101ED0000804109207046AE070E082E60E94600441
:101EE00044E050E05CA74BA70E9459068091BE04D5
:101EF00083FD19C000913B0310913C030430110590
:101F000009F415C70CF0CCC10230110509F414C254
:101F10000330110509F47EC46AE070E085E40E9494
:101F200060040E9499012BA53CA5215031093CA7D2
:101F30002BA7232BC9F60E9459068091BE0484FF6B
:101F400002C00C94ED1E80E1E1EDF3E0DF01882E8C
:101F50001D928A94E9F7E1ECF3E0DF011D928A9586
:101F6000E9F780E4E1E8F3E0DF01882E1D928A942E
:101F7000E9F7E1E4F3E0DF011D928A95E9F71092B9
:101F80002E0310922D031092400310923F031092E3
:101F90003C0310923B031092E2031092E103E1ED47
:101FA000F3E001EC13E021E833E041E4C42E43E028
:101FB000D42ED6014D905D906D907D906D01608125
:101FC0003296D8018D919D918D01A6014450510901
:101FD0006EA71DA66DA57EA54B01770FAA08BB08AD
:101FE000092E000CAA0BBB0B482A592A6A2A7B2A05
:101FF000482859286A287B28DA014D925D926D9213
:102000007C921397CF010297DC011D921C92C801AC
:102010000297DC011D921C92D9011D921D921D9206
:102020001D929D01B1E6CB16B3E0DB0611F61092CE
:102030002C0310922B0310E000E0812C912C540112
:102040008394002E04C0880C991CAA1CBB1C0A9403
:10205000D2F7E1E4F3E090E080E0419151916191A9
:102060007191482159216A217B21452B462B472B11
:1020700009F00196CE16DF0681F790933203809324
:102080003103089709F0C5C0B801012E000C880B78
:10209000990B0E94A0219B01AC0160E070E080E000
:1020A00090E40E9431222B013C0181E4A82E83E0C0
:1020B000B82E912C812C1801EFEF2E1A3E0A20E049
:1020C00030E0A901C301B2010E942C2220E030E0DF
:1020D00040E05FE387FF02C00C945C1FC301B201C4
:1020E0000E94FC200E94682160957095072E000CCC
:1020F000880B990BD5012D913D914D915C916223F7
:10210000732384239523F5016083718382839383F2
:10211000C4010E94F105E0902B03F0902C03F1E044
:10212000EF16F10411F40C94731F14F00C94621F59
:1021300064E170E082E6E114F10411F40C946F1F85
:102140006EE170E080E090E00E94660120E030E007
:10215000A901C301B2010E942C2220E030E040E03E
:102160005FE387FF02C00C947B1FC301B2010E9492
:10217000FC200E94682161507109F50180819181E4
:10218000A281B3819C01AD01022C04C055954795F5
:10219000379527950A94D2F7002E04C0220F331FDB
:1021A000441F551F0A94D2F786239723092E000C4B
:1021B000AA0BBB0B822B932BA42BB52B8193919352
:1021C000A193B1935F01FFEF8F1A9F0A28E0821657
:1021D000910409F074CFB12CA12CC5010E94F10526
:1021E0003FEFA31AB30A48E0A416B104B1F70150B7
:1021F00011095FEFE51AF50AF0922C03E0922B0328
:1022000080913F0390914003019690934003809307
:102210003F030F5F1F4F0031110509F00ECF609192
:102220002B0370912C03161617060CF094CB6150FB
:102230007109072E000C880B990B0E94A0219B01AD
:10224000AC0160E070E080E890E40E9431226B0114
:102250007C0120E030E0A9010E942C2220E030E047
:1022600040E05FE387FF02C00C94811FC701B60105
:102270000E94FC200E94682180912D0390912E03E2
:10228000680F791F70932E0360932D0364CB8091A8
:10229000000190910101909308048093070420CEDF
:1022A0000630110511F40C941E1B0CF4C0C6073047
:1022B000110509F031CE80913703909138038130B8
:1022C000910511F40C94DD1D14F00C944D1D892B17
:1022D00009F022CE0091350310913603F801EE0F7C
:1022E000FF1FEE0FFF1FEB57FC4F408151816281B2
:1022F0007381440F551F661F771FF801EE0FFF1FF4
:10230000EE0FFF1FDF01AF5BBC4F8D919D910D90D4
:10231000BC91A02D84239523A623B723892B8A2B38
:102320008B2B09F0F9CDEF57FC4F4083518362832B
:102330007383C8010C94881B8091370390913803F4
:102340008130910509F425C10CF079C0892B09F081
:10235000E3CDE0903503F09036031E141F040CF01B
:10236000DBCD57015FEFA51AB50A8501000F111FDC
:10237000000F111F0F571C4FF80180819181A2811E
:10238000B381AC01BD01440F551F661F771F482B59
:10239000592B6A2B7B2B6701F1E0CF1AD108F6018C
:1023A000EE0FFF1FEE0FFF1FDF01AF5BBC4F8D91E4
:1023B0009D910D90BC91A02D84239523A623B72336
:1023C000892B8A2B8B2B09F0A7CDEF57FC4F40832D
:1023D000518362837383C6010E94F105F701EE0FFA
:1023E000FF1FEE0FFF1F9F012F573C4FF801808109
:1023F0009181A281B381880F991FAA1FBB1FF90188
:1024000080839183A283B383C7010E94F105F80101
:1024100080819181A281B381880F991FAA1FBB1F60
:1024200080839183A283B383C5010E94F105D0927A
:102430003603C092350388248394912CE6C1823000
:10244000910509F447C1039709F066CD80913503E2
:10245000909136039C01220F331F220F331FF90185
:10246000EF57FC4F80809180A280B380B501A4011A
:1024700075956795579547956C01AFEFCA1ADA0ABB
:10248000880C991CAA1CBB1C842A952AA62AB72A48
:102490007601EE0CFF1CEE0CFF1CF701EF5BFC4F0E
:1024A000408051806280738084209520A620B720D0
:1024B00089288A288B2809F02FCD5C01B2E0AB0E69
:1024C000B11C8501000F111F000F111FF801EF5BF8
:1024D000FC4F4080518062807380442155216621E9
:1024E0007721452B462B472B09F016CDE0E12E1620
:1024F00031040CF011CD2F573C4FD9011D921D9284
:102500001D921C9213970E94F1050F571C4FF80162
:102510004081518162817381F701EF57FC4FDB01EC
:10252000CA01B595A79597958795842B952BA62BD2
:10253000B72B80839183A283B383C6010E94F105E8
:10254000F80180819181A281B381AC01BD017595B3
:1025500067955795479512E0B595A79597958795F7
:102560001A95D1F784239523A623B72380839183DB
:10257000A283B383C5010E94F105D0923603C092B5
:102580003503FFEF2F1A3F0A1092380310923703DA
:10259000C3CC80913503909136036C0122E0C20ECA
:1025A000D11C9601220F331F220F331FA9014F5751
:1025B0005C4F58A74FA3DA014D905D906D907C90D1
:1025C000440C551C661C771C9C01220F331F220FE4
:1025D000331FF901EF5BFC4F4081518162817381B0
:1025E0004421552166217721452B462B472B09F0A5
:1025F00093CCFC013196FEA3EDA3EE0FFF1FEE0F6F
:10260000FF1FAF014F575C4F7A01DA014D915D9189
:102610006D917C914A015B01880C991CAA1CBB1C22
:102620007595679557954795482959296A297B29B2
:10263000EF5BFC4F80809180A280B38048215921BC
:102640006A217B21452B462B472B09F065CC2F5760
:102650003C4FD9014D925D926D927C9213970E94EE
:10266000F105F7014081518162817381DB01CA016B
:10267000880F991FAA1FBB1F2A013B0175946794FD
:102680005794479484299529A629B729842B952BFB
:10269000A62BB72B80839183A283B3838DA19EA1A8
:1026A0000E94F105AFA1B8A51D921D921D921C922A
:1026B0001397C6010E94F105809133039091340372
:1026C000019690933403809333031093380300935F
:1026D000370322CCA0903303B09034031A141B04A8
:1026E0000CF01ACC00913503109136039801220F9B
:1026F000331F220F331FF901EF57FC4F40815181E7
:10270000628173817595679557954795F901EF5BE0
:10271000FC4F80819181A281B38184239523A623DC
:10272000B723892B8A2B8B2B09F0F6CB4801BFEFFF
:102730008B1A9B0A7401EE0CFF1CEE0CFF1CF701B8
:10274000EF57FC4F4080518062807380F701EF5B50
:10275000FC4F80819181A281B38184219521A621A2
:10276000B721440C551C661C771C84219521A62199
:10277000B721892B8A2B8B2B09F0CECBF901EF5790
:10278000FC4F6F014083518362837383C8010E94B1
:10279000F105F60180819181A281B38197012F57C4
:1027A0003C4F7901F90180839183A283B383C401F3
:1027B0000E94F105D7014D915D916D917C91C80109
:1027C0000296FC01EE0FFF1FEE0FFF1FEF57FC4FAD
:1027D0008A019B01000F111F221F331F402B512B19
:1027E000622B732B40835183628373830E94F105B4
:1027F000B1E0AB1AB108B0923403A0923303E1E028
:102800002E1A310803E0802E912C9092380380928A
:10281000370382CB80913703909138038130910543
:1028200009F445C10CF0A2C0892B09F075CBE090EA
:102830003303F09034031E141F040CF06DCB009191
:102840003503109136039801220F331F220F331FD7
:10285000F901EF57FC4F80819181A281B381AC01D6
:10286000BD01440F551F661F771FF2E0880F991FA7
:10287000AA1FBB1FFA95D1F7842B952BA62BB72B3C
:10288000F901EF5BFC4F80809180A280B3808822A9
:102890009922AA22BB2289288A288B2809F03CCBBE
:1028A0005801E2E0AE0EB11C6501CC0CDD1CCC0C75
:1028B000DD1CF601EF5BFC4F40805180628073802D
:1028C0004421552166217721452B462B472B09F0C2
:1028D00023CB2F573C4FF90180839183A283B3838D
:1028E000C8010E94F105C80101968C01000F111F5B
:1028F000000F111F0F571C4FD8014D915D916D9125
:102900007C912A013B01440C551C661C771C759573
:102910006795579547954421552166217721F80100
:1029200040835183628373830E94F105F8018081A3
:102930009181A281B381F601EF57FC4F808391838F
:10294000A283B383C5010E94F105F1E0EF1AF108FB
:10295000F0923403E092330321E0221A310841E07F
:1029600050E05093380340933703D6CA8230910524
:1029700009F444C1039709F0CFCA009135031091BF
:1029800036039801220F331F220F331FF901EF572F
:10299000FC4F80819181A281B381AC01BD0175950D
:1029A000679557954795F901EF5BFC4FC080D18043
:1029B000E280F380C422D522E622F722CD28CE2859
:1029C000CF2809F0A9CA7801EFEFEE1AFE0AF80144
:1029D000F595E795EE0FFF1FEE0FFF1FEF57FC4F2A
:1029E000880F991FAA1FBB1F80809180A280B3808F
:1029F00088299929AA29BB296701CC0CDD1CCC0C9C
:102A0000DD1CF601EF5BFC4F80809180A280B380DB
:102A100088219921AA21BB21892B8A2B8B2B09F094
:102A20007BCA2F573C4FD9014D935D936D937C9397
:102A30001397C8010E94F1050E5F1F4FF601EF5773
:102A4000FC4F6F0180819181A281B381880F991F12
:102A5000AA1FBB1F9801220F331F220F331FA9018A
:102A60004F575C4F5A01FA01408151816281738155
:102A7000842B952BA62BB72BF60180839183A28301
:102A8000B383C7010E94F105D5011D921D921D92CD
:102A90001C921397C8010E94F10580913303909115
:102AA0003403019690933403809333036DCD50E14A
:102AB000251631040CF030CA80913503909136030D
:102AC0008C010F5F1F4F9801220F331F220F331FFE
:102AD000B9016F577C4F6B01DB014D915D916D9199
:102AE0007C914A015B01880C991CAA1CBB1C759542
:102AF000679557954795482959296A297B292F5B5E
:102B00003C4FF90180809180A280B38048215921F7
:102B10006A217B21452B462B472B09F0FDC95C011F
:102B2000F2E0AF0EB11C9501220F331F220F331FAD
:102B3000A9014F575C4F7A01DA014D915D916D917A
:102B40007C91440F551F661F771F2F5B3C4FF90187
:102B50004080518062807380442155216621772115
:102B6000452B462B472B09F0D7C9FC01EE0FFF1F61
:102B7000EE0FFF1FEF57FC4F10821182128213825B
:102B80000E94F105D6014D915D916D917C91DB0123
:102B9000CA01880F991FAA1FBB1F2A013B01759408
:102BA00067945794479484299529A629B729842B9B
:102BB000952BA62BB72BF60180839183A283B38339
:102BC000C8010E94F105F70180819181A281B38142
:102BD000880F991FAA1FBB1F80839183A283B38391
:102BE000C5010E94F1051093360300933503FFEFF2
:102BF0002F1A3F0AF2E08F2E912C07CEE09035037A
:102C0000F09036031E141F040CF086C947012FEF05
:102C1000821A920A8401000F111F000F111FF80180
:102C2000EF57FC4F80819181A281B381AC01BD013E
:102C30007595679557954795570131E0A31AB108E7
:102C40009501220F331F220F331FF901EF5BFC4F59
:102C50004080518062807380442255226622772210
:102C600045284628472809F057C9E2E0B595A795B9
:102C700097958795EA95D1F7842B952BA62BB72BA3
:102C8000F801EF5BFC4F40805180628073808421AB
:102C90009521A621B721892B8A2B8B2B09F03CC9C2
:102CA000C9018F579C4F6C01DC014D935D936D936F
:102CB0007C931397C5010E94F105F60180819181F3
:102CC000A281B3819701220F331F220F331FA90165
:102CD0004F575C4F6A01FA0180839183A283B383CB
:102CE000C7010E94F1050F571C4FF80180819181A7
:102CF000A281B38122E0B595A795979587952A95EE
:102D0000D1F7F6014081518162817381842B952B2B
:102D1000A62BB72BF80180839183A283B383C401D0
:102D20000E94F105B0923603A09235036BCD8091DD
:102D30003703909138038130910509F4B4C00CF049
:102D400054C0892B09F0E8C800913503109136036F
:102D5000C80101969C01220F331F220F331FF90176
:102D6000EF57FC4F40815181628173816A017B0181
:102D7000CC0CDD1CEE1CFF1C2F5B3C4FD9018D9051
:102D80009D90AD90BC908C209D20AE20BF208928C6
:102D90008A288B2809F0C0C84C295D296E297F2913
:102DA00040835183628373830E94F105C8010296B8
:102DB000FC01EE0FFF1FEE0FFF1FEF57FC4F1082BD
:102DC0001182128213820E94F10580913303909147
:102DD000340301969093340380933303E1E0F0E0F1
:102DE000F0933803E093370397C88230910509F4D4
:102DF000C2C0039709F090C80091350310913603C3
:102E0000101611060CF088C8F801EE0FFF1FEE0F28
:102E1000FF1FEB57FC4F4081518162817381780124
:102E200021E0E21AF108F701EE0FFF1FEE0FFF1F7E
:102E3000DF01AF5BBC4F8D919D910D90BC91A02D9A
:102E400084239523A623B723892B8A2B8B2B09F068
:102E500063C8EF57FC4F4083518362837383C7017C
:102E60000E94F105F801EE0FFF1FEE0FFF1FEF5755
:102E7000FC4F4081518162817381DB01CA01B595AC
:102E8000A7959795879584239523A623B7238083B9
:102E90009183A283B383C8010E94F105F0923603A7
:102EA000E092350371CB0091330310913403101677
:102EB00011060CF031C880913503909136035C0106
:102EC000F2E0AF0EB11C9C01220F331F220F331F03
:102ED000A9014F575C4F6A017501EE0CFF1CEE0C07
:102EE000FF1CF701EF5BFC4FD6014D915D916D9199
:102EF0007C914080518062807380442155216621FD
:102F00007721452B462B472B09F006C80196FC017B
:102F1000EE0FFF1FEE0FFF1FEF57FC4F4080518059
:102F200062807380B301A201440F551F661F771F93
:102F30004421552166217721408351836283738325
:102F40000E94F105F60180819181A281B381F70190
:102F5000EF57FC4F80839183A283B383C5010E9406
:102F6000F105015011091093340300933303F1E08C
:102F70002F1A31083FCE80913503909136038C0192
:102F80000F5F1F4F9801220F331F220F331FA9011C
:102F90004F575C4F7A01DA014D915D916D917C91B3
:102FA00075956795579547952F5B3C4FF901808044
:102FB0009180A280B380482159216A217B21452B31
:102FC000462B472B11F00C948C0FF0E12F16310497
:102FD00014F00C948C0FFC01EE0FFF1FEE0FFF1F7F
:102FE000EF57FC4F10821182128213820E94F1056A
:102FF000D7014D915D916D917C91DB01CA01B59531
:10300000A79597958795842B952BA62BB72BF70122
:1030100080839183A283B383C8010E94F10510933A
:10302000360300933503FFEF2F1A3F0AEBCB809155
:103030003703909138038130910509F485C10CF074
:10304000C8C0892B11F00C948C0F0091350310919E
:1030500036031016110614F00C948C0FA090330355
:10306000B090340332E0A316B10414F40C948C0F26
:10307000C801880F991F880F991FAC014F575C4FEB
:103080005AA349A3FA0180819181A281B381AC0145
:10309000BD017595679557954795F2E0880F991F83
:1030A000AA1FBB1FFA95D1F784239523A623B72324
:1030B0002801F1E04F1A510848012FEF821A920AB5
:1030C000380132E0630E711C9201220F331F220F70
:1030D000331FA9014F5B5C4FB401660F771F660F6A
:1030E000771F7EA36DA36F5B7C4FFA01C080D180F8
:1030F000E280F380FB014081518162817381C422AF
:10310000D522E622F722A301440F551F440F551F75
:1031100058A74FA3FA01EF5BFC4F408151816281B8
:1031200073814C215D216E217F21482359236A231D
:103130007B23452B462B472B11F00C948C0FB901A8
:103140006F577C4F7B01FB0180839183A283B38304
:10315000C2010E94F105F70180819181A281B381B2
:10316000E9A1FAA180839183A283B383C8010E945D
:10317000F105E9A1FAA180819181A281B381EDA13C
:10318000FEA1EF57FC4F80839183A283B383C401D8
:103190000E94F105E9A1FAA180819181A281B38108
:1031A000EFA1F8A5EF57FC4F80839183A283B383EF
:1031B000C3010E94F1055092360340923503C501C8
:1031C00002979093340380933303F2E02F1A31086F
:1031D00032C98230910509F46CC1039711F00C9447
:1031E0008C0F20E12216310414F00C948C0F009106
:1031F000350310913603F801EE0FFF1FEE0FFF1F8E
:10320000AF014F575C4F3A01FA0180819181A28151
:10321000B3816801FFEFCF1ADF0A4C015D01B5945D
:10322000A79497948794AC01BD01440F551F661F66
:10323000771F482959296A297B29F2E0880F991FAD
:10324000AA1FBB1FFA95D1F7842B952BA62BB72B62
:103250007601EE0CFF1CEE0CFF1C97012F5B3C4F20
:10326000F901408151816281738184239523A623D2
:10327000B723892B8A2B8B2B11F00C948C0FD30145
:103280001D921D921D921C921397C8010E94F10578
:10329000F701EF57FC4F4081518162817381DB015F
:1032A000CA01B595A795979587954A015B01880C4A
:1032B000991CAA1CBB1C88299929AA29BB29842BE3
:1032C000952BA62BB72B22E0440F551F661F771FA7
:1032D0002A95D1F7842B952BA62BB72B808391832E
:1032E000A283B383C6010E94F105C8010296FC01C6
:1032F000EE0FFF1FEE0FFF1FEF57FC4F10821182E2
:10330000128213820E94F105C8010396FC01EE0FA0
:10331000FF1FEE0FFF1FEF57FC4F1082118212822A
:1033200013820E94F105D0923603C092350380913A
:1033300033039091340302969093340380933303C4
:10334000BFEF2B1A3B0A20C92FE02216310414F0DC
:103350000C948C0F0091350310913603F801EE0F99
:10336000FF1FEE0FFF1FAF014F575C4F3A01FA01ED
:1033700080819181A281B3816801F2E0CF0ED11CDE
:103380004C015D01880C991CAA1CBB1CAC01BD0141
:103390007595679557954795482959296A297B2935
:1033A000F2E0B595A79597958795FA95D1F7842B77
:1033B000952BA62BB72B7601EE0CFF1CEE0CFF1CF9
:1033C00097012F5B3C4FF9014081518162817381EC
:1033D00084239523A623B723892B8A2B8B2B11F0CB
:1033E0000C948C0FD3011D921D921D921C92139769
:1033F000C8010E94F105C8010196FC01EE0FFF1FF4
:10340000EE0FFF1FEF57FC4F1082118212821382C2
:103410000E94F105F701EF57FC4F40815181628115
:103420007381DB01CA01880F991FAA1FBB1F4A01C4
:103430005B01B594A7949794879488299929AA2920
:10344000BB29842B952BA62BB72B22E0759567956E
:10345000579547952A95D1F7842B952BA62BB72BFB
:1034600080839183A283B383C6010E94F105C801C2
:103470000396FC01EE0FFF1FEE0FFF1FEF57FC4FEF
:1034800010821182128213820E94F105D0923603BB
:10349000C092350380913303909134030196909349
:1034A000340380933303B2E02B0E311CE2E0F0E0F2
:1034B00097CC00913503109136030230110514F4B6
:1034C0000C948C0F80903303909034039EA28DA2B5
:1034D0001814190414F00C948C0FC801880F991F4C
:1034E000880F991F9C012F573C4F3AA329A3F9013C
:1034F00080819181A281B381AC01BD01440F551F30
:10350000661F771FF2E0B595A79597958795FA9571
:10351000D1F784239523A623B7232801F2E04F1A7D
:103520005108480121E0821A910838013FEF631ADF
:10353000730A9201220F331F220F331FA9014F5B21
:103540005C4F7401EE0CFF1CEE0CFF1CB7016F5BAF
:103550007C4FFA01A080B180C280D380FB01408102
:10356000518162817381A422B522C622D722A30190
:10357000440F551F440F551F58A74FA3FA01EF5B87
:10358000FC4F40815181628173814A215B216C2112
:103590007D21482359236A237B23452B462B472B28
:1035A00011F00C948C0FB9016F577C4F6B01FB012C
:1035B00080839183A283B383C2010E94F105F60147
:1035C00080819181A281B38197012F573C4F79016E
:1035D000F90180839183A283B383C4010E94F10522
:1035E000F70180819181A281B381E9A1FAA1808351
:1035F0009183A283B383C8010E94F105E9A1FAA1D6
:1036000080819181A281B381EFA1F8A5EF57FC4F92
:1036100080839183A283B383C3010E94F1055092FA
:103620003603409235038DA19EA1019790933403F8
:1036300080933303F1E02F1A3108E4C880913703F7
:10364000909138038130910509F402C10CF07CC0DF
:10365000892B11F00C948C0F0091350310913603D7
:103660006801EFEFCE1ADE0A9601220F331F220FF8
:10367000331FA9014F575C4F7A01DA014D915D91DB
:103680006D917C91C801880F991F880F991FFC01CB
:10369000EF5BFC4F80809180A280B38084229522D2
:1036A000A622B72289288A288B2811F00C948C0F27
:1036B0002F5B3C4FF90140805180628073804A014A
:1036C0005B01880C991CAA1CBB1C84209520A62099
:1036D000B72089288A288B2811F00C948C0F8F57DB
:1036E0009C4FDC014D935D936D937C931397C801C0
:1036F0000E94F105F70180819181A281B381880F39
:10370000991FAA1FBB1F80839183A283B383C60125
:103710000E94F105C8010296FC01EE0FFF1FEE0F9B
:10372000FF1FEF57FC4F10821182128213820E94FA
:10373000F105809133039091340301969093340303
:10374000809333030C941B128230910509F40BC152
:10375000039711F00C948C0F0091350310913603F0
:103760001016110614F00C948C0F68017FEFC71A25
:10377000D70A7601EE0CFF1CEE0CFF1CF701EF5789
:10378000FC4F80819181A281B381F801EE0FFF1F70
:10379000EE0FFF1FEF57FC4F408151816281738113
:1037A000482359236A237B23015011099801220FD2
:1037B000331F220F331FF901EF5BFC4F8080918094
:1037C000A280B38084229522A622B72289288A2843
:1037D0008B2811F00C948C0FB595A795979587952C
:1037E000F701EF5BFC4F80809180A280B38088213D
:1037F0009921AA21BB21892B8A2B8B2B11F00C94A8
:103800008C0FC9018F579C4F5C01DC014D935D9378
:103810006D937C931397C8010E94F10597012F5770
:103820003C4FF50180819181A281B381B595A79527
:1038300097958795F90180839183A283B383C6010D
:103840000E94F10510933603009335030C94C412C3
:10385000A0903303B0903403BAA2A9A21A141B0497
:1038600014F00C948C0F80913503909136039C01D9
:10387000220F331F220F331FA9014F575C4F6A01DC
:10388000DA014D905D906D907C905301420152E0C1
:10389000880C991CAA1CBB1C5A95D1F7B301A20134
:1038A000440F551F661F771F482159216A217B212C
:1038B0002F5B3C4FF90180809180A280B3808422ED
:1038C0009522A622B72289288A288B2811F00C94E9
:1038D0008C0F9C012E5F3F4F3EA32DA3DC01AA0F4E
:1038E000BB1FAA0FBB1FAB57BC4F7901EE0CFF1CCF
:1038F000EE0CFF1CF701EF5BFC4F0D911D912D911C
:103900003C9180809180A280B38080229122A2226B
:10391000B322482059206A207B2045284628472882
:1039200011F00C948C0FD6014D935D936D937C93A5
:1039300013970E94F10597012F573C4FF6018081A4
:103940009181A281B381B595A79597958795F90146
:1039500080839183A283B3838DA19EA10E94F105F0
:1039600009A11AA1FECA20E12216310414F00C9418
:103970008C0F80913503909136036C013FEFC31A91
:10398000D30A7601EE0CFF1CEE0CFF1CF701EF577B
:10399000FC4F408151816281738175956795579580
:1039A0004795F701EF5BFC4F008111812281338144
:1039B0004023512362237323452B462B472B11F0C1
:1039C0000C948C0F5C0142E0A40EB11C8501000F29
:1039D000111F000F111FF801EF57FC4F408151815B
:1039E00062817381440F551F661F771FF801EF5BDB
:1039F000FC4F4080518062807380442155216621B4
:103A00007721452B462B472B11F00C948C0FFC0192
:103A1000EE0FFF1FEE0FFF1FEF57FC4F10821182BA
:103A2000128213820E94F105F701EF57FC4F80814B
:103A30009181A281B381B595A7959795879580834C
:103A40009183A283B383C6010E94F105F801EF5769
:103A5000FC4F4081518162817381DB01CA01880F73
:103A6000991FAA1FBB1F842B952BA62BB72B8083D6
:103A70009183A283B383C5010E94F105D0923603DE
:103A8000C09235035FEF251A350A63E070E070934A
:103A90003803609337030C948C0F8230910509F43E
:103AA0003DC1039711F00C948C0FE0903503F0901A
:103AB00036031E141F0414F00C948C0F47012FEFD3
:103AC000821A920AC401880F991F880F991FAC01AE
:103AD0004F575C4F5AA349A3DA014D915D916D9107
:103AE0007C91DB01CA01B595A795979587958423AD
:103AF0009523A623B7235701E1E0AE1AB10885014B
:103B0000000F111F000F111FF801EF5BFC4F4080E9
:103B1000518062807380482259226A227B22452884
:103B20004628472811F00C948C0F6701CC0CDD1C43
:103B3000CC0CDD1CF601EF5BFC4F408051806280B5
:103B400073804421552166217721452B462B472B35
:103B500011F00C948C0F0F571C4FF8018083918348
:103B6000A283B383C5010E94F105E9A1FAA1808176
:103B70009181A281B381F601EF57FC4F808391833D
:103B8000A283B383C7010E94F105F801808191816E
:103B9000A281B381880F991FAA1FBB1FE9A1FAA1B7
:103BA00080839183A283B383C4010E94F105B09204
:103BB0003603A09235030C94C412A0903303B09046
:103BC0003403BAA2A9A21A141B0414F00C948C0F8B
:103BD00020913503309136033CAB2BAB49013FEFCD
:103BE000831A930A8401000F111F000F111FF8019F
:103BF000EF57FC4F4080518062807380F801EF5B8B
:103C0000FC4FB301A201440F551F661F771FC080F0
:103C1000D180E280F3804C215D216E217F21452BF4
:103C2000462B472B11F00C948C0F2BA93CA9220F8B
:103C3000331F220F331FF901EF57FC4FC080D18093
:103C4000E280F380ABA8BCA842E0A40EB11CB50191
:103C5000660F771F660F771F7EA36DA3FB01EF5BD7
:103C6000FC4FD701C601880F991FAA1FBB1F4081B7
:103C700051816281738184239523A623B723AC01EC
:103C8000BD014C215D216E217F21452B462B472B09
:103C900011F00C948C0FB9016F577C4F78A76FA36C
:103CA0004C205D206E207F20DB014D925D926D9255
:103CB0007C9213978BA99CA90E94F105F801EF57FC
:103CC000FC4F80819181A281B381880F991FAA1F27
:103CD000BB1F80839183A283B383C4010E94F1053B
:103CE0002DA13EA12F573C4FEFA1F8A580819181D6
:103CF000A281B381880F991FAA1FBB1FF90180837E
:103D00009183A283B383C5010E94F10589A19AA181
:103D10000197909334038093330329C920E122163D
:103D2000310414F00C948C0F80913503909136037C
:103D30006C013FEFC31AD30A5C0142E0A40EB11C30
:103D40009601220F331F220F331FB9016F577C4F8B
:103D50007B01DB014D915D916D917C91759567952E
:103D6000579547958501000F111F000F111FF8018E
:103D7000EF5BFC4F4080518062807380442155216D
:103D800066217721452B462B472B11F00C948C0F85
:103D9000FC01EE0FFF1FEE0FFF1FEF57FC4F1082CD
:103DA0001182128213820E94F1050F571C4FF701F6
:103DB00080819181A281B381B595A79597958795CB
:103DC000F80180839183A283B383C5010E94F1052A
:103DD000D0923603C092350326C980913103909169
:103DE00032032091E3033091E403E1E4F3E001E8DE
:103DF00013E0D801C190D190E190F1904D915D9187
:103E00006D917D9175956795579547954C215D21ED
:103E10006E217F21452B462B472B09F041C001968F
:103E200043E0E136F40731F7909332038093310396
:103E30003093E4032093E303089711F00C94CF0F21
:103E400050E12516310414F00C94CF0FF12CE12C25
:103E5000F80181919191A191B1918F013497B5951C
:103E6000A7959795879580839183A283B383C70194
:103E70000E94F105FFEFEF1AFF0A28E0E216F104B5
:103E800039F76091070470910804072E000C880B25
:103E9000990B0E9466013FEF231A330A0C946B0DB5
:103EA0002114310409F49DC043E0E136F40709F41C
:103EB00092C090E080E09ECFC301B2010E94FB203F
:103EC0000C94721032E0E316F10489F064E170E0C2
:103ED00081E443E0E416F10411F00C94A0100E9478
:103EE00060040C94A01064E170E084E4F8CF64E115
:103EF00070E086E4F4CFC301B2010E94FB200C9471
:103F0000B910C701B6010E94FB200C943A1160E57C
:103F100070E086E40E9460046CE370E081E40E943B
:103F2000600460E570E086E40E9460046CE370E089
:103F300081E40E94600480E1E4E5F1E0DE01519655
:103F400001900D928A95E1F780E1E4E5F1E0DE0170
:103F5000119601900D928A95E1F77E0163E1E60EDC
:103F6000F11C0FEF1FEF72E0E71AF108D7014C9137
:103F7000B80190E080E00E948F0564E670E080E088
:103F800090E00E9466010F5F1F4F0830110559F73E
:103F90007E01B3E2EB0EF11C0FEF1FEFE2E0EE1A31
:103FA000F108D7014C91B80181E090E00E948F05A3
:103FB00064E670E080E090E00E9466010F5F1F4FB2
:103FC0000830110559F768E077E080E090E00E9442
:103FD00066010C94480C3093E4032093E3030C94A3
:103FE000CF0F30E020E060CF8F929F92AF92BF92D0
:103FF000CF92DF92EF92FF92CF93DF93EC01688133
:1040000079818A819B81611571058105910521F472
:1040100064E279ED8BE597E02DE133EF41E050E08C
:104020000E94982049015A019B01AC01A7EAB1E422
:104030000E94B7206B017C01ACEEB4EFA5019401A6
:104040000E94C520C60ED71EE81EF91EF7FE06C048
:1040500081E0C81AD108E10880E8F80AC882D9824C
:10406000EA82FB82C701B6019F77DF91CF91FF9073
:10407000EF90DF90CF90BF90AF909F908F9008957A
:104080008F929F92AF92BF92CF92DF92EF92FF9268
:1040900060910301709104018091050190910601E6
:1040A000611571058105910521F464E279ED8BE5D7
:1040B00097E02DE133EF41E050E00E949820490164
:1040C0005A019B01AC01A7EAB1E40E94B7206B0141
:1040D0007C01ACEEB4EFA50194010E94C520C60E90
:1040E000D71EE81EF91EF7FE06C081E0C81AD108E7
:1040F000E10880E8F80AC0920301D0920401E0923E
:104100000501F0920601C701B6019F77FF90EF907D
:10411000DF90CF90BF90AF909F908F900895609365
:1041200003017093040180930501909306010895A3
:10413000052E97FB1EF400940E94AF2057FD07D078
:104140000E94CA2007FC03D04EF40C94AF20509577
:104150004095309521953F4F4F4F5F4F0895909573
:104160008095709561957F4F8F4F9F4F08950E9466
:10417000EC20A59F900DB49F900DA49F800D911DE4
:1041800011240895B7FF0C94B7200E94B720821B1A
:10419000930B0895A1E21A2EAA1BBB1BFD010DC0B3
:1041A000AA1FBB1FEE1FFF1FA217B307E407F507E7
:1041B00020F0A21BB30BE40BF50B661F771F881FC3
:1041C000991F1A9469F760957095809590959B0159
:1041D000AC01BD01CF010895A29FB001B39FC00102
:1041E000A39F700D811D1124911DB29F700D811D23
:1041F0001124911D08955058BB27AA270E9413210E
:104200000C94F2210E94E42138F00E94EB2120F06E
:1042100039F49F3F19F426F40C94E1210EF4E09553
:10422000E7FB0C94DB21E92F0E94032258F3BA1715
:10423000620773078407950720F079F4A6F50C94BC
:1042400025220EF4E0950B2EBA2FA02D0B01B901FB
:1042500090010C01CA01A0011124FF27591B99F0FC
:10426000593F50F4503E68F11A16F040A22F232F08
:10427000342F4427585FF3CF469537952795A79558
:10428000F0405395C9F77EF41F16BA0B620B730BFF
:10429000840BBAF09150A1F0FF0FBB1F661F771F70
:1042A000881FC2F70EC0BA0F621F731F841F48F425
:1042B000879577956795B795F7959E3F08F0B0CFAE
:1042C0009395880F08F09927EE0F97958795089595
:1042D0000E946F216894B1110C94262208950E94C7
:1042E0000B2288F09F5798F0B92F9927B751B0F05B
:1042F000E1F0660F771F881F991F1AF0BA95C9F76A
:1043000014C0B13091F00E942522B1E008950C94C0
:104310002522672F782F8827B85F39F0B93FCCF373
:10432000869577956795B395D9F73EF490958095E6
:10433000709561957F4F8F4F9F4F0895E89409C006
:1043400097FB3EF490958095709561957F4F8F4FC8
:104350009F4F9923A9F0F92F96E9BB279395F695DE
:10436000879577956795B795F111F8CFFAF4BB0F5C
:1043700011F460FF1BC06F5F7F4F8F4F9F4F16C0C0
:10438000882311F096E911C0772321F09EE8872F4A
:10439000762F05C0662371F096E8862F70E060E006
:1043A0002AF09A95660F771F881FDAF7880F96957F
:1043B000879597F9089597F99F6780E870E060E026
:1043C00008959FEF80EC089500240A9416161706AE
:1043D00018060906089500240A94121613061406F6
:1043E00005060895092E0394000C11F4882352F059
:1043F000BB0F40F4BF2B11F460FF04C06F5F7F4F11
:104400008F4F9F4F089557FD9058440F551F59F0F7
:104410005F3F71F04795880F97FB991F61F09F3FB1
:1044200079F087950895121613061406551FF2CFDA
:104430004695F1DF08C0161617061806991FF1CF2A
:1044400086957105610508940895E894BB27662751
:104450007727CB0197F908950E94BB2208F48FEFCC
:104460000895FA01EE0FFF1F309621053105A1F1E5
:104470006115710561F48038BFE39B0749F16894C9
:104480009038810561F08038BFEF9B0741F0992398
:104490004AF5FF3FE1053105210519F1E89408943B
:1044A000E795D901AA2329F4AB2FBE2FF85FD0F3EB
:1044B00010C0FF5F70F4A695E0F7F73950F019F0DF
:1044C000FF3A38F49F779F930DD00F9007FC9058D8
:1044D000089546F00C94E12160E070E080E89FE3ED
:1044E00008954FE79F775F934F933F932F930E94D9
:1044F00050232F913F914F915F910E94CC230C94B8
:10450000892229F416F00C94DB210C9425220C94BA
:10451000E1210E940B22A8F39638A0F707F80F922A
:10452000E8942BE33AEA48EB5FE70E94E2230F921C
:104530000F920F924DB75EB70F920E949823E8E654
:10454000F0E00E94DF224F915F91EF91FF91E5959E
:10455000EE1FFF1F49F0FE57E0684427EE0F441F8F
:10456000FA95E1F74195550B0E9412230F9007FE33
:104570000C9406230895990F0008550FAA0BE0E844
:10458000FEEF16161706E807F907C0F01216130615
:10459000E407F50798F0621B730B840B950B39F455
:1045A0000A2661F0232B242B252B21F408950A26BB
:1045B00009F4A140A6958FEF811D811D0895DF9319
:1045C000CF931F930F93FF92EF92DF927B018C01A9
:1045D000689406C0DA2EEF010E94DF23FE01E89402
:1045E000A5912591359145915591A6F3EF010E9432
:1045F0001321FE019701A801DA9469F7DF90EF908B
:10460000FF900F911F91CF91DF9108959B01AC0115
:1046100060E070E080E89FE30C9439240C94DB2187
:104620000C94AB240E940B22D8F39923C9F3940F66
:10463000511DA3F39150504094F059F0882332F06B
:10464000660F771F881F91505040C1F79E3F51055C
:104650002CF7880F911D9695879597F908955F3FE0
:10466000ACF0983E9CF0BB27869577956795B795FB
:1046700008F4B1609395C1F7BB0F58F711F460FFD0
:10468000E8CF6F5F7F4F8F4F9F4FE3CF0C94262271
:1046900016F00C94AB240C94E12168940C94DB216B
:1046A0000E940B22A8F39923C1F3AEF3DF93CF93BB
:1046B0001F930F93FF92C92FDD2788232AF021979C
:1046C000660F771F881FDAF720E030E040E85FEBE5
:1046D0009FE3883920F0803E38F021968F770E9442
:1046E000FC20E0E9F0E004C00E94FC20EDEBF0E0EB
:1046F0000E94DF228B01BE01EC01FB2E6F57710976
:104700007595771F880B990B0E94A02128E132E74D
:1047100041E35FE30E94DF23AF2D9801AE01FF90DC
:104720000F911F91CF91DF910E9413210C94F221E0
:10473000FA01DC01AA0FBB1F9B01AC01BF5728F493
:10474000222733274427507820C0B75190F4AB2F4D
:104750000024469537952795011CA395D2F3002098
:1047600071F0220F331F441FB395DAF30ED00C946F
:10477000FB2061307105A0E88A07B94630F49B013F
:10478000AC016627772788279078309621F0208320
:1047900031834283538308950E94DF230C94F221D6
:1047A0000E94E42138F00E94EB2120F0952311F0C3
:1047B0000C94DB210C94E12111240C9426220E94FC
:1047C000032270F3959FC1F3950F50E0551F629F30
:1047D000F001729FBB27F00DB11D639FAA27F00D5A
:1047E000B11DAA1F649F6627B00DA11D661F829F81
:1047F0002227B00DA11D621F739FB00DA11D621F66
:10480000839FA00D611D221F749F3327A00D611D82
:10481000231F849F600D211D822F762F6A2F112464
:104820009F5750409AF0F1F088234AF0EE0FFF1F97
:10483000BB1F661F771F881F91505040A9F79E3FEE
:10484000510580F00C94DB210C9426225F3FE4F3A9
:10485000983ED4F3869577956795B795F795E79544
:104860009F5FC1F7FE2B880F911D9695879597F94D
:1048700008950E944D240C94F2210E94EB2158F0DF
:104880000E94E42140F029F45F3F29F00C94DB21E1
:1048900051110C9426220C94E1210E94032268F30A
:1048A0009923B1F3552391F3951B550BBB27AA27E9
:1048B00062177307840738F09F5F5F4F220F331F23
:1048C000441FAA1FA9F335D00E2E3AF0E0E832D0EB
:1048D00091505040E695001CCAF72BD0FE2F29D0EE
:1048E000660F771F881FBB1F261737074807AB07C0
:1048F000B0E809F0BB0B802DBF01FF2793585F4F35
:104900003AF09E3F510578F00C94DB210C9426225E
:104910005F3FE4F3983ED4F3869577956795B79516
:10492000F7959F5FC9F7880F911D9695879597F921
:104930000895E1E0660F771F881FBB1F621773079A
:104940008407BA0720F0621B730B840BBA0BEE1FAF
:1049500088F7E09508959F3F31F0915020F48795B6
:1049600077956795B795880F911D9695879597F9D7
:10497000089597FB072E16F4009407D077FD09D011
:104980000E94DA2407FC05D03EF4909581959F4F54
:104990000895709561957F4F0895EE0FFF1F059064
:1049A000F491E02D09940E94EC20B7FF0895821B3A
:1049B000930B0895AA1BBB1B51E107C0AA1FBB1F85
:1049C000A617B70710F0A61BB70B881F991F5A959B
:1049D000A9F780959095BC01CD010895F894FFCF7B
:1049E000F40101010000006364656667616243448D
:1049F0004546474A41427B07A406EF059805FB045C
:104A00007004F603BC035203F802CC027D025B0281
:104A10003802FB0177001200320012007200000021
:104A2000770052003200520092000000E2002200A3
:104A300042007200FF00FF00FF00FF00FF00FF00C8
:104A4000FF00FF006B006C006D0002000100010020
:104A5000020001000100020001000100020001004B
:104A60000100020001000100020002000200020039
:104A70000400020002000100020001000100020027
:104A8000010001000200010001000200010001001C
:104A90000200020002000200040001000200010006
:104AA00001000200010001000200010001000200FB
:104AB00001000100020001000100020002000200EA
:104AC00002000400020002000100020001000100D7
:104AD00002000100010002000100010002000100CB
:104AE00001000200020002000200040001000500B3
:104AF000050005000500050005000700020005008F
:104B00000500050005000200020005000500030085
:104B100045624344436261614345444362624344A6
:104B2000454361612044464147464545434544432A
:104B3000626243444543616120456243444362618C
:104B400061434544436262434445436161204446B6
:104B500041474645454345444362624344454361BA
:104B600061204543446243616220454344624345BA
:104B7000414A200000000000620235027F03120259
:064B8000EC00220213020A
:00000001FF
